:020000040800F2
:10000000C0670020E5010008D90D0008D10C0008E8
:10001000D50D000811070008871E00080000000029
:100020000000000000000000000000004501000882
:100030001507000800000000850100085914000899
:10004000FF010008FF010008FF010008FF01000890
:10005000FF010008FF010008FF010008FF01000880
:10006000FF010008FF01000819070008FF01000850
:10007000FF010008FF010008FF010008FF01000860
:10008000FF010008FF010008FF010008FF01000850
:10009000FF010008FF010008FF0100084D070008EC
:1000A000FF010008FF010008FF010008FF01000830
:1000B00051150008A9150008FF010008FF010008FC
:1000C000FF010008FF010008FF010008C11100083E
:1000D000FF010008CD1A0008B91B0008FF01000845
:1000E000FF010008FF010008FF010008FF010008F0
:1000F000FF010008FF010008FF010008FF010008E0
:10010000FF010008FF010008FF010008FF010008CF
:10011000FF010008FF010008FF010008FF010008BF
:10012000FF010008FF010008FF010008FF010008AF
:10013000DFF80CD000F0A2F8004800476D2400085A
:10014000C06700201F4B19680868B0E8F00F80F303
:100150000988BFF36F8F4FF0000080F311884EF0D5
:100160000D0E70470000000005480068006880F32D
:10017000088862B6BFF34F8FBFF36F8F00DF00BFF9
:1001800008ED00E0EFF30980BFF36F8F0D4B1A68A5
:1001900020E9F00F106008B54FF0100080F31188CF
:1001A00003F0A2F84FF0000080F31188BDE808408A
:1001B00019680868B0E8F00F80F30988BFF36F8F03
:1001C000704700BF14010020EFF311804FF01001C1
:1001D00081F31188704780F311887047EFF3058031
:1001E000704700000648804706480047FEE7FEE7E4
:1001F000FEE7FEE7FEE7FEE7FEE7FEE7FEE7FEE7D7
:10020000F1140008310100080649074A0868504304
:1002100043F2390210440860400870470149086001
:1002200070470000C40100206D4EC64140EA010342
:100230009B0703D009E008C9121F08C0042AFAD29C
:1002400003E011F8013B00F8013B521EF9D2704760
:1002500030B50B46014600202022012409E021FA96
:1002600002F59D4205D303FA02F5491B04FA02F593
:100270002844151EA2F10102F1DC30BD064C074DE9
:1002800006E0E06840F0010394E807009847103466
:10029000AC42F6D3FFF750FFC43B0008E43B000834
:1002A00070B58C1810F8015B15F0070301D110F838
:1002B000013B2A1106D110F8012B03E010F8016B65
:1002C00001F8016B5B1EF9D12B0705D40023521EE8
:1002D0000DD401F8013BFAE710F8013BCB1A921C50
:1002E00003E013F8015B01F8015B521EF9D5A1424E
:1002F000D8D3002070BD21B1826842F00102826033
:1003000003E0826822F001028260704710B5044663
:100310001248844208D10121401500F0D7FE002187
:10032000601500F0D3FE17E00D48844208D101218A
:10033000001500F0CBFE0021201500F0C7FE0BE0F9
:100340000848844208D10121C80300F0BFFE002103
:100350004FF4004000F0BAFE10BD00000024014040
:1003600000280140003C0140014600208A6802F05C
:1003700004020AB1012000E0002070470146C86C69
:1003800080B270470246002013680B400BB1012079
:1003900000E000207047014600208A6802F0080251
:1003A0000AB1012000E000207047000030B502468D
:1003B0000020002350680F4C20400D790C6844EA5F
:1003C00005242043506090680B4C2040D1E9025432
:1003D0002C434D7944EA450420439060D06A20F4D0
:1003E00070000C7C641EE4B2234340EA0350D062E8
:1003F00030BD0000FFFEF0FFFDF7F1FFF0B5044651
:100400000D4600200021092D11DDE068A5F10A0646
:1004100006EB4607072606FA07F18843A5F10A0608
:1004200006EB460603FA06F10843E0600CE020699B
:1004300005EB4507072606FA07F1884305EB450655
:1004400003FA06F108432061072A0FDA606B561E93
:1004500006EB86071F2606FA07F18843561E06EBB1
:10046000860605FA06F10843606322E00D2A0FDADA
:10047000206BD61F06EB86071F2606FA07F1884376
:10048000D61F06EB860605FA06F10843206310E046
:10049000E06AA2F10D0606EB86071F2606FA07F1B1
:1004A0008843A2F10D0606EB860605FA06F108431D
:1004B000E062F0BD816841F008018160704721B1C0
:1004C000826842F4A002826003E0826822F4A00203
:1004D00082607047816841F00401816070470000CC
:1004E00000B587B001214FF4047000F0DFFD4FF438
:1004F000004000F0BFFD0320ADF8040000208DF89F
:10050000070001A9194800F047FA1948FFF7FEFE55
:10051000002002908DF80C008DF80D004FF4602043
:1005200004900020059001208DF8180002A91048C1
:10053000FFF73CFF01210E48FFF7DDFE01210C48CB
:10054000FFF7BDFF0A48FFF7B5FF00BF0848FFF7F8
:1005500022FF0028FAD10648FFF7BCFF00BF04487D
:10056000FFF702FF0028FAD107B000BD00100140DC
:100570000024014010B500223221082002F0CCFFF7
:100580000449086003220021012002F0C5FF02494E
:10059000086010BD300000203400002010B500F0CD
:1005A000F5FB10BD1CB5002400F06EFF01F04EFD00
:1005B00000F013FC00F0CAF941F61F41092001F0D8
:1005C000C1F90121084600F071FD0121244800F025
:1005D0006FFA00F05BF8FFF7E1FF00F05BF84FF413
:1005E000614000F05BF84FF4614001F0FBFA00F06D
:1005F0005BF800F023FB0446204600F0EFFAFFF71B
:100600006FFF02F0A3FA0120164908601649C1F8ED
:10061000BC0100BF154A1649164801F02DFE0028FE
:10062000F8D0144800681449C1F816001048016851
:100630001148C0F81A100D4801680F48C0F81E1084
:1006400000F09CFA0D48411E831EC21ECDE9001029
:10065000011F401F01F028FE09A001F017FC1CBD7E
:1006600000023000840121420000214248000020A5
:100670004400002040000020A40400205500002079
:10068000696E697420206F6B200D0A0010B500F0B0
:1006900027FC10BD10B500F025FE10BD10B50446B6
:1006A000204601F031FA10BD30B5164800684FF40D
:1006B0007A72B0FBF2F1B1F1807F01D301201DE02D
:1006C00021F07F40401E4FF0E022506150170F2272
:1006D000002807DA13071D0E0B4B00F00F04241F30
:1006E0001D5503E013071C0E084B1C5400BF0020CF
:1006F0004FF0E022906107201061002008B100BF98
:10070000FEE730BDEC00002018ED00E000E400E062
:1007100000BFFEE77047000010B5102000F0B8F8E9
:1007200010B90748006850B90548006820B9012091
:100730000449C87204490870102000F04DF810BD3B
:1007400010012142A40400209200002010B5802056
:1007500000F09EF810B91B48006850B919480068AD
:1007600020B901201849887318490870802000F0CA
:1007700033F8402000F08CF818B91248001F0068C8
:1007800058B91048001F006820B901200E4948736D
:100790000F490870402000F01FF8202000F078F882
:1007A00018B908480838006858B906480838006879
:1007B00020B901200449087306490870202000F080
:1007C0000BF810BD1C012142A40400208F00002062
:1007D000900000209100002001490860704700004F
:1007E000140401401CB50721002000F0B5F880205A
:1007F000009000208DF804000C208DF805000120E9
:100800008DF80600684600F057F88020FFF7E4FFF7
:100810000621002000F0A0F84020009000208DF874
:1008200004000C208DF8050001208DF806006846B4
:1008300000F042F84020FFF7CFFF0521002000F034
:100840008BF82020009000208DF804000C208DF8FB
:10085000050001208DF80600684600F02DF82020E4
:10086000FFF7BAFF0421002000F076F81020009076
:1008700000208DF804000C208DF8050001208DF873
:100880000600684600F018F81020FFF7A5FF1CBD11
:10089000014600200022074B1B6803EA0102054BBA
:1008A00014331B680B4013B10AB1012000E0002093
:1008B0007047000000040140002123498279002A8A
:1008C0003AD00A46126803689A430B461A600A1D1A
:1008D000126803689A430B1D1A60027911440A6872
:1008E00003681A430A60184A0832126803689A4378
:1008F000154B08331A601A1D126803689A43124B8D
:100900000C331A604279102A0ED11A1F126803683C
:100910001A430D4B08331A601A1D126803681A43F4
:10092000094B0C331A600DE00749427911440A68FB
:1009300003681A430A6005E0027911440A680368F3
:100940009A430A60704700000004014010B500F0AF
:1009500083FAFFF747FF10BD30B500228B071C0F4D
:100960000F2303FA04F20B4B8C1053F824309343FB
:10097000084C8D1044F8253023468C1053F8243051
:100980008C07240F00FA04F42343024C8D1044F822
:10099000253030BD080001402DE9F0410246002518
:1009A0000026002000230024002791F803C00CF04B
:1009B0000F0591F803C00CF0100CBCF1000F03D030
:1009C00091F802C04CEA050591F800C0BCF1000F97
:1009D00031D0146800202BE04FF0010C0CFA00F32A
:1009E000B1F800C00CEA03069E4220D183004FF00C
:1009F0000F0C0CFA03F7BC4305FA03FC4CEA0404A1
:100A000091F803C0BCF1280F06D14FF0010C0CFA8D
:100A100000FCC2F814C00AE091F803C0BCF1480F12
:100A200005D14FF0010C0CFA00FCC2F810C0401CBC
:100A30000828D1D31460B1F800C0BCF1FF0F34DD39
:100A4000546800202EE000F1080C4FF0010808FA6D
:100A50000CF3B1F800C00CEA03069E4221D18300DA
:100A60004FF00F0C0CFA03F7BC4305FA03FC4CEAF9
:100A7000040491F803C0BCF1280F05D100F1080C63
:100A800008FA0CF8C2F8148091F803C0BCF1480FC2
:100A900007D100F1080C4FF0010808FA0CF8C2F871
:100AA0001080401C0828CED35460BDE8F0810000BF
:100AB000F0B50A46002300240021002500F000467E
:100AC000B6F1004F02D11D4EF16901E01B4E716875
:100AD000C0F3034583B200F44016B6F5401F08D1B9
:100AE00021F07061154E766826F07066134F7E60B7
:100AF00012E000F48016B6F5801F06D1032606FA30
:100B000005F4A14341F0706106E0460D360103FA99
:100B100006F6B14341F0706122B1460D360103FA89
:100B200006F6314300F00046B6F1004F02D1034E05
:100B3000F16101E0014E7160F0BD00000000014074
:100B4000416170470161704710B5044605230122D9
:100B500021460948FFF752FC01210748FFF7AFFC87
:100B600000BF02210448FFF70DFC0028F9D002481D
:100B7000FFF704FC10BD00000024014085B011A265
:100B80001268049210A21268039210A212680292D4
:100B90000FA21268019241F288310EA212680092EF
:100BA0004FF4FA500C4A049B9360039BD360029B62
:100BB0001361019B5361009B93619183D08305B0C6
:100BC00070470000C0A8C665FFFFFF00C0A8C601AF
:100BD00072727373C0A8C6CB2C560020002100F09F
:100BE000010212B1012A00D100BF104A12681AB9DD
:100BF00000220F4BDA7118E00E4A12681AB901226E
:100C00000B4BDA7111E00B4A121F12681AB902225B
:100C1000074BDA7109E0084A12681AB90322044B3B
:100C2000DA7102E00022024BDA7170470081214242
:100C3000A404002014012242000121420020204986
:100C4000087020480068097808431D4908701D484D
:100C5000001F0068097841EA4000194908701948E6
:100C600008380068097841EA80001549087015487D
:100C70002C380068097841EAC00011490870114811
:100C800030380068097841EA00100D4908700E48B4
:100C90000068097841EA4010094908700A48001FB5
:100CA0000068097841EA8010054908700748006823
:100CB000097841EAC0100249087008460078704778
:100CC00059000020308121421401224200012142BA
:100CD00000BFFEE710B58020FFF7DAFD10B9254808
:100CE000006850B92348006820B901202249887360
:100CF000224908708020FFF76FFD4020FFF7C8FDF4
:100D000018B91C48001F006858B91A48001F00682D
:100D100020B9012018494873194908704020FFF78D
:100D20005BFD2020FFF7B4FD18B9124808380068B1
:100D300058B910480838006820B901200E490873D6
:100D4000104908702020FFF747FD1020FFF7A0FD95
:100D500018B908480C38006858B906480C380068BB
:100D600020B901200449C872074908701020FFF714
:100D700033FD10BD1C012142A40400208F0000207F
:100D800090000020910000209200002008B5012171
:100D9000042000F08BF90121084600F087F90121B9
:100DA0000A48FFF785FE48208DF8030003208DF8E0
:100DB0000200F020ADF8000069460548FFF7ECFDA1
:100DC000F0210348FFF7BEFE08BD0000000230001E
:100DD0000008014000BFFEE7704710B54FF44070B7
:100DE00000F074F810BD000070B5002100230F2240
:100DF000C47804B3154C246804F4E064C4F5E064DA
:100E0000210AC1F10403CA40447804FA03F184784A
:100E10001440214309010E4C0678A155047804F0D2
:100E20001F050124AC4005786D11AD0005F1E025EA
:100E3000C5F8004109E0047804F01F050124AC4026
:100E4000044D0678761145F8264070BD0CED00E0A3
:100E500000E400E080E100E008B517208DF8000014
:100E600000208DF802008DF8010001208DF80300AC
:100E70006846FFF7B9FF17208DF8000000208DF8B5
:100E800002008DF8010001208DF803006846FFF78D
:100E9000ABFF17208DF8000000208DF802008DF8C0
:100EA000010001208DF803006846FFF79DFF0A202E
:100EB0008DF8000000208DF802008DF8010001205F
:100EC0008DF803006846FFF78FFF08BD0249014314
:100ED000024A1160704700000000FA050CED00E0C6
:100EE00008B50121084600F0E1F801215C48FFF750
:100EF000DFFD01213C2000F0D9F810208DF803001F
:100F000001208DF802000420ADF8000010208DF8BB
:100F1000030002208DF8020069465248FFF73CFDAD
:100F200004215048FFF70EFE4FF40050ADF80000CA
:100F300069464D48FFF730FD4FF48040ADF80000A2
:100F400069464948FFF728FD0420ADF800006946CE
:100F50004548FFF721FD0220ADF8000069464248F0
:100F6000FFF71AFD0120ADF8000069463E48FFF783
:100F700013FD2020ADF8000069463C48FFF70CFD4A
:100F80001020ADF8000069463848FFF705FD08203D
:100F9000ADF8000069463548FFF7FEFC0420ADF8C7
:100FA000000069462F48FFF7F7FC4FF48050ADF87A
:100FB000000069462C48FFF7EFFC4FF40060ADF8E5
:100FC000000069462848FFF7E7FC4FF48060ADF861
:100FD000000069462448FFF7DFFC4FF40040ADF8FD
:100FE000000069462248FFF7D7FC4FF400511E4825
:100FF000FFF7A8FD4FF480411B48FFF7A3FD042134
:101000001948FFF79FFD02211748FFF79BFD0121BB
:101010001548FFF797FD20211448FFF793FD102195
:101020001248FFF78FFD08211048FFF78BFD0421C0
:101030000C48FFF787FD4FF480510B48FFF782FD06
:101040004FF400610848FFF77DFD4FF480610648CA
:10105000FFF778FD4FF400410548FFF773FD08BD29
:10106000000230000014014000100140000C01405B
:101070000008014001460020034A506820F4404027
:1010800008435060704700000010024029B1064A32
:10109000D2690243044BDA6104E0034AD269824315
:1010A000014BDA61704700000010024029B1064A86
:1010B00092690243044B9A6104E0034A92698243B5
:1010C000014B9A61704700000010024029B1064AA6
:1010D000D2680243044BDA6004E0034AD2688243D8
:1010E000014BDA60704700000010024030B500216B
:1010F0000022002400232D4D6D6805F00C0121B164
:10110000042905D0082923D105E0294D056022E0F6
:10111000274D05601FE0254D6D6805F47012234DC5
:101120006D6805F48034022505EB92421CB9214D0F
:10113000554305600BE01D4D6D6805F400351DB18C
:101140001C4D5543056002E0194D5543056002E012
:10115000174D056000BF00BF144D6D6805F0F0012C
:101160000909154D6B5C0568DD4045600F4D6D68E4
:1011700005F4E061090A104D6B5C4568DD4085604F
:101180000A4D6D6805F46051C90A0B4D6B5C4568EA
:10119000DD40C560054D6D6805F44041890B074D84
:1011A0006B5CC568B5FBF3F5056130BD001002400E
:1011B00000127A0000093D0000010020100100200B
:1011C00010B500240121064800F00CF8012804D1D4
:1011D000034800F010F8C4B200E000BF10BD0000EA
:1011E000003001400246002013890B400BB1012062
:1011F00000E00020704701468889704710B500F074
:1012000001F810BD0CB50020019000903348006833
:1012100040F480303149086000BF3048006800F475
:10122000003000900198401C0190009818B9019876
:10123000B0F5A06FF1D12948006800F4003010B17A
:101240000120009001E0002000900098012843D187
:101250002348006840F010002149086008460068F3
:1012600020F0030008600846006840F002000860B3
:101270001A4840681949486008464068486008466E
:10128000406840F4806048600846406820F47C1064
:1012900048600846406840F4E81048600846006826
:1012A00040F08070086000BF0C48006800F00070DB
:1012B0000028F9D00948406820F003000749486039
:1012C0000846406840F00200486000BF034840689C
:1012D00000F00C000828F9D10CBD000000100240FD
:1012E0000020024008B501211C20FFF7DFFE01218C
:1012F0004B48FFF7DDFB48208DF8030001208DF8F7
:101300000200ADF8000069464648FFF745FB102093
:10131000ADF8000069464448FFF73EFB2020ADF8D9
:10132000000069464048FFF737FB0120ADF8000098
:1013300069463E48FFF730FB0220ADF800006946E1
:101340003A48FFF729FB4FF48060ADF8000069468A
:101350003648FFF721FB4FF40060ADF80000694606
:101360003248FFF719FB4FF48050ADF80000694692
:101370002E48FFF711FB4020ADF8000069462B48CE
:10138000FFF70AFB8020ADF8000069462748FFF709
:1013900003FB4FF48070ADF8000069462348FFF767
:1013A000FBFA4FF40070ADF8000069461F48FFF7E4
:1013B000F3FA40211D48FFF7C5FB80211B48FFF7CA
:1013C000C1FB4FF480711948FFF7BCFB4FF400716B
:1013D0001648FFF7B7FB4FF480511448FFF7B2FBF4
:1013E0004FF400611148FFF7ADFB4FF480610F48E7
:1013F000FFF7A8FB02210D48FFF7A4FB01210B48D2
:10140000FFF7A0FB20210848FFF79CFB10210648AE
:10141000FFF798FB01210348FFF794FB08BD00008C
:10142000000230000008014000100140000C0140A3
:10143000042808D14FF0E021096941F004014FF080
:10144000E022116107E04FF0E021096921F0040179
:101450004FF0E0221161704710B5FEF7B5FE02F0C3
:101460005BF918B14FF08050054908600020FEF785
:10147000B2FE04480068401C0249086010BD00002C
:1014800004ED00E07001002030B5164800684FF40C
:101490007A72B0FBF2F1B1F1807F01D301201DE03F
:1014A00021F07F40401E4FF0E022506150170F2284
:1014B000002807DA13071D0E0B4B00F00F04241F42
:1014C0001D5503E013071C0E084B1C5400BF0020E1
:1014D0004FF0E022906107201061002008B100BFAA
:1014E000FEE730BDEC00002018ED00E000E400E075
:1014F00010B51348006840F0010011490860084623
:101500004068104908400E494860084600680E4986
:1015100008400B4908600846006820F480200860F5
:101520000846406820F4FE0048604FF41F008860C1
:10153000FFF764FE4FF000600449086010BD000032
:10154000001002400000FFF8FFFFF6FE08ED00E08B
:1015500010B50121880700F034FA10B30121880783
:1015600000F020FA0F48D0E900305A1C40F100008A
:101570000C49C1E9002008464FF47A7306C80020E0
:10158000591A904104D20021064A1160516008E0C6
:101590000448D0E90020521C40F100000149C1E993
:1015A000002010BDE000002010B5CB480088CA49DB
:1015B00008800121C94800F004FA00287ED00121EA
:1015C000C64800F0EFF9C6480088B0F5967F03DD05
:1015D0000020C349088004E0C1480088401CC0497D
:1015E0000880C0480088B0F5FA7F06DD0120BA49BE
:1015F00008800020BB49088004E0BA480088401CED
:10160000B8490880B848008841F28831884205DB33
:101610000020B5490880B549C87208E0B348C07ACF
:10162000012804D1B0480088401CAF490880B04868
:101630000078012804D10020AB490880AC4908702B
:10164000AC48008841F28831884205DB0020A94976
:101650000880A649087308E0A448007B012804D14B
:10166000A4480088401CA3490880A34800780128AA
:1016700004D100209F4908809F4908709F48008836
:1016800041F28831884205DB00209C490880974957
:10169000487308E09548407B012804D197480088AA
:1016A000401C9649088096480078012804D1002003
:1016B0009249088092490870924800E00BE1008846
:1016C00041F28831884205DB00208E490880874935
:1016D000887308E08548807B012804D18948008808
:1016E000401C8849088088480078012804D10020DF
:1016F00084490880844908708448008841F2883110
:10170000884206DB01208249086000207F4908806A
:1017100007E07F48006820B97C480088401C7B496E
:1017200008807248C07B012802D1002077490880D8
:101730007848008841F28831884207DB01207449EB
:10174000091F086000207349088009E07048001FE5
:101750000068C0B220B96F480088401C6D490880FD
:101760006248007C012802D100206A4908806A484A
:10177000008841F28831884207DB0120644908393A
:10178000086000206449088009E061480838006862
:10179000C0B220B960480088401C5F4908805348A7
:1017A000407C012802D100205B4908805B4800880A
:1017B00041F28831884206DB012059490860002047
:1017C0005649088008E056480068C0B220B953481E
:1017D0000088401C514908804448807C012802D17F
:1017E00000204E4908804F48008841F288318842E5
:1017F00006DB01204C49086000204A49088008E0C7
:1018000049480068C0B220B946480088401C454994
:1018100008803648C07C012802D100204149088058
:101820004248008841F28831884207DB01203E4966
:10183000091F086000203D49088009E03A48001F60
:101840000068C0B220B939480088401C3749088078
:101850002648007D012802D1002034490880344800
:101860000088B0F57A7F10DD20488078FE2803DDFF
:10187000FE201E4988700DE01C488078401C1B49E2
:10188000887000202A49088004E029480088401C0C
:1018900027490880274800880021274AD2E90032DA
:1018A000C01A91410ED22548007858B10021224A31
:1018B000116051601C4808380068C0432049C1F8D5
:1018C000A80108E01C48D0E90020521C40F10000AB
:1018D0001949C1E9002010BDBC00002000040040EF
:1018E000A4000020A600002064000020A404002022
:1018F0008F0000206600002090000020680000207B
:10190000910000206A000020920000207400002056
:101910009481214276000020780000207A00002087
:10192000888122427C000020B00122427E000020FB
:10193000A80000200C000020B00000200B000020B8
:10194000000022427FB505460C4601210220FFF728
:101950009DFBADF80850ADF804400020ADF80A003A
:10196000ADF8060001A90E4800F046F80122114624
:101970000B4800F037F81D208DF8000000208DF88E
:10198000010004208DF8020001208DF80300684654
:10199000FFF72AFA0121024800F007F87FBD000096
:1019A00000040040CA430282704721B1028842F01D
:1019B0000102028004E002884FF6FE731A400280A2
:1019C000704730B50246002000230024158A05EA3E
:1019D0000103958905EA010413B10CB1012000E06F
:1019E000002030BD1AB183890B43838102E08389D3
:1019F0008B43838170470000002202881D4B984270
:101A00000ED01D4B98420BD0B0F1804F08D01B4B2D
:101A1000984205D01A4B984202D01A4B984204D1F2
:101A20004FF68F731A404B881A43174B984207D0D2
:101A3000164B984204D04FF6FF431A40CB881A4306
:101A400002808B8883850B8803850A4B98420BD0D4
:101A5000094B984208D00E4B984205D00D4B984246
:101A600002D00D4B984201D10B7A03860123838269
:101A700070470000002C0140003401400004004089
:101A800000080040000C004000100040001400401E
:101A900000400140004401400048014070B5044648
:101AA0000D460BE02178084800F0E9F900BF40211D
:101AB000054800F016F90028F9D0641C281EA5F18D
:101AC0000101CDB2EED170BD0038014008B540F241
:101AD00025510B4800F012F958B10120094908704E
:101AE000074800F0C7F9C0B200900121684600F035
:101AF00069FB40F22551024800F0D8F808BD00000B
:101B0000003801407C01002010B586B00446012158
:101B10000420FFF7CBFA01218803FFF7C7FA4FF43F
:101B20000070ADF8140018208DF8170003208DF810
:101B3000160005A91E48FEF72FFF4FF48060ADF890
:101B4000140004208DF8170005A91948FEF724FF9A
:101B500001940020ADF80800ADF80A00ADF80C00C3
:101B6000ADF810000C20ADF80E0001A9114800F0EE
:101B700015F94FF44070FFF7A9F925208DF8000002
:101B800000208DF801008DF8020001208DF803007F
:101B90006846FFF729F9012240F22551054800F077
:101BA000D7F80121034800F090F806B010BD0000FE
:101BB000000801400038014010B540F225510748A7
:101BC00000F09CF818B1054800F054F9C4B240F296
:101BD0002551034800F06AF810BD000000440040A1
:101BE0000038014010B586B0044601210420FFF7FB
:101BF0005DFA01214804FFF749FA0420ADF814000A
:101C000018208DF8170003208DF8160005A9254827
:101C1000FEF7C2FE0820ADF8140004208DF817006E
:101C200005A92048FEF7B8FE01940020ADF8080091
:101C3000ADF80A00ADF80C00ADF810000C20ADF8BE
:101C40000E0001A9184800F0A9F84FF4A060FFF7B2
:101C50003DF926208DF8000000208DF801008DF858
:101C6000020001208DF803006846FFF7BDF801224D
:101C700040F225510C4800F06BF801210A4800F0B1
:101C800024F80220ADF8140010208DF8170005A9E3
:101C90000448FEF781FE02210248FEF753FF06B01A
:101CA00010BD0000000801400044004010B50022B3
:101CB000002340F66A14A14200D100BF0A12012499
:101CC0009440A3B2DC43048010BD21B1828942F468
:101CD0000052828104E082894DF6FF731A408281AE
:101CE000704702460020B1F5007F00D100BF138885
:101CF0000B400BB1012000E00020704770B5024698
:101D0000002400230025002040F66A16B14200D1CD
:101D100000BFC1F3421501F01F03012606FA03F3C9
:101D2000012D02D19689334006E0022D02D1168A98
:101D3000334001E0968A33400C12012606FA04F47F
:101D40001688344013B10CB1012000E0002070BDB2
:101D5000F0B50346002400260025002040F66A174F
:101D6000B94200D100BF1846C1F3421401F01F066A
:101D7000012707FA06F5012C01D10C3004E0022CF2
:101D800001D1103000E014301AB107682F4307600A
:101D900002E00768AF430760F0BD00002DE9F0479F
:101DA00086B005460E460024A24600BFA146002785
:101DB000B08900B100BF2F462C8A4CF6FF7004405A
:101DC000F08804432C82AC894EF6F3100440B088AE
:101DD00031890843718908430443AC81AC8A4FF6CA
:101DE000FF400440B0890443AC8201A8FFF77EF9AC
:101DF0001F48874202D1DDF810A001E0DDF80CA0F9
:101E0000A88900F4004040B10AEBCA0000EB0A10B8
:101E100031684900B0FBF1F807E00AEBCA0000EBBB
:101E20000A1031688900B0FBF1F86420B8FBF0F0CB
:101E300004012009642101FB1089A88900F40040F5
:101E400040B1322000EBC900B0FBF1F000F0070018
:101E5000044308E0322000EB09106421B0FBF1F0EC
:101E600000F00F0004432C8106B0BDE8F0870000AD
:101E70000038014001468888C0F308007047C1F36C
:101E800008028280704700BFFEE700000FB4054BD8
:101E900010B503A9044A029800F018F810BC5DF8C8
:101EA00014FB000049220008C801002002E008C815
:101EB000121F08C1002AFAD170477047002001E0C4
:101EC00001C1121F002AFBD1704700002DE9FF4F0E
:101ED00089B09B460446002506E025280BD05A46CB
:101EE0000B999047641C6D1C20780028F5D10DB02B
:101EF0002846BDE8F08F0027B8460122474900E098
:101F0000074314F8013F203B02FA03F00842F7D1DF
:101F100020782E2819D114F8010F47F004072A2839
:101F20000ED06FF02F022078A0F1300109290CD8D3
:101F300008EB880102EB410100EB0108641CF2E7A9
:101F40000A98641C50F8048B0A9020780028CED0A0
:101F5000642808D0692806D075281ED05A460B99E7
:101F600090476D1C58E00A994FF00A0901C90A917F
:101F7000002802DA40422D2102E0390504D52B2148
:101F80008DF82010012103E0F90704D02021F7E7A4
:101F90008A4608AE0DE00021FAE70A994FF00A09D7
:101FA00001C90A91F7E74946FEF752F9303106F8C0
:101FB000011D0028F7D1ADEB060000F120097807DC
:101FC00001D44FF00108C84502DDA8EB090000E08C
:101FD00000208046002706E008A85A46C05D0B99FD
:101FE00090476D1C7F1C5745F6DB04E030205A46B5
:101FF0000B9990476D1CB8F10001A8F10108F5DCC0
:1020000005E016F8010B5A460B9990476D1CB9F183
:102010000001A9F10109F4DC641C65E7092801004D
:1020200030B50246002000230BE012F8015B85EA80
:102030002024E4B2044D35F8144084EA0024A0B210
:102040005B1C8B42F1D330BDC439000810B54FF092
:10205000E020006920F004004FF0E02108611B48F7
:1020600000881A4908800920194908700846007834
:1020700000EB4001C1EBC0104FF6FF7101EAC00058
:10208000124908800420FFF7D3F91248006812496A
:10209000B0FBF1F00E4908700E4800680E49B0FB25
:1020A000F1F44FF47A7044430120084908804FF05E
:1020B000E020006940F002004FF0E021086108468E
:1020C0004461006940F00100086110BD4E0000202D
:1020D0004C000020EC00002040420F001548008812
:1020E0001549098888420ED11448007800F0010093
:1020F00038B91248007840F00200104908700020FA
:1021000070478020FCE70C4800880A49098888420B
:1021100006DD0948008807490988401A80B2EFE7C0
:1021200004480088C0F1800003490988084480B24F
:10213000E6E700009A0000209800002097000020A9
:1021400070B50246002400232CE01A4800881A4D7E
:102150002D88A8420CD11948007800F0010038B948
:102160001648007840F00200144D2870002070BD21
:10217000104805880088401C0E4E30801048465D8F
:102180002046651CACB216540A48007800F07F0067
:10219000084D2880581C83B20848007820F00100C0
:1021A000064D2870081EA1F10105A9B2CDD118462F
:1021B000DDE700009A000020980000209700002032
:1021C000E4040020F0B50246002400232CE01A4865
:1021D000007800F0010008B10020F0BD2046651C29
:1021E000ACB2155C154806880088401C134F388037
:1021F000134885553846007800F07F003D4628801A
:102200000D48007820F002000B4D2870581C83B256
:10221000384600880B4D2D88A84205D10648007825
:1022200040F00100044D2870081EA1F10105A9B27B
:10223000CDD11846D1E7000097000020980000207B
:10224000E40400209A00002070B504460D460120E9
:1022500007490860E1B20748FFF711FE00BF4021BF
:102260000448FFF73EFD0028F9D0204670BD00006D
:10227000840121420044004003460A480068186077
:102280000848001D006808600648083000681060B3
:10229000186818B9086808B9106808B101207047B3
:1022A0000020FCE7E8F7FF1F2DE9FE4304460D463A
:1022B00016461F46DDE90A896A4601A902A8FFF70A
:1022C000DBFFA0B14C2020700298000C2870009811
:1022D000000E30700098000C38700098000A88F8E2
:1022E0000000009889F800000120BDE8FE8300206E
:1022F000FBE710B50446E078512804D0542806D0F6
:1023000056280CD107E0204600F00CF808E02046E3
:1023100000F068F804E0204600F09EF800E000BFFE
:1023200000BF10BD30B58DB004460D22211D09A897
:10233000FDF77CFF0020274908800120264908700E
:102340009DF8260008B90DB030BD9DF82600234940
:102350004979884205D09DF82600204909788842AD
:1023600035D101201E49087000201C4988709DF855
:102370002900C8739DF82A0008749DF82B00487442
:102380009DF82C0088749DF82D00C8749DF82E00CF
:1023900008750846407A097A104A927B0F4B5B7B9E
:1023A000CDE90432CDE906100C48007B0B49C97A0F
:1023B0000A4A927A094BDB79084DCDE90032CDE922
:1023C0000210AB796A792979E87800F069F800BFE2
:1023D000B9E70000900100208C010020A404002037
:1023E000040000201FB504461022211D6846FDF799
:1023F0001DFFDDF801001749D1F8161088420DD1F4
:10240000DDF805101348D0F81A00814206D1DDF836
:1024100009101048D0F81E0081420FD09DF800002E
:102420000C494979884205D09DF80000094949794D
:1024300088420DD100200749487109E09DF800004D
:10244000044948719DF8000008709DF80D0048751A
:102450001FBD0000A40400200021024A5171024A5D
:1024600011707047A40400208C0100201FB50020CB
:102470000223CDE9003002900346802204A103909C
:10248000064801F0B1F800F0FDFE002004B010BDD8
:1024900053746172745461736B000000D53000088E
:1024A0002DE9F05F04460D4616461F46DDE90CABEC
:1024B000DDE90A89FE20214908700C204870FF20C0
:1024C00088705220C8701E48047045708670C770AE
:1024D00080F8048080F8059080F806A080F807B0A6
:1024E00017490E9808720F984872109888721198C0
:1024F000C872144811490968016011490A684260AC
:102500004A6882608968C1600C21001DFFF788FD60
:1025100000120C4908740C210A48001DFFF780FDC9
:1025200008494874EF2088740020074988701321F7
:102530000448FFF7B3FABDE8F09F000097010020C0
:1025400000570020ED560020A40400202DE9F0479C
:1025500004460D4616461F46DDE90889FE2022493D
:10256000087014204870002088705320C8701F48DD
:1025700080F80080C0F80140C0F80550C0F809603C
:102580004773002019498873084680F80F8000209F
:102590000874084680F8119000208874C8741448A4
:1025A00011490968016014221049001DFDF73EFE23
:1025B00014210F48001DFFF733FD00120C49087667
:1025C00014210B48001DFFF72BFD09494876EF2029
:1025D000887600200749887048711B210448FFF75E
:1025E0005DFABDE8F08700009B010020275700201E
:1025F0000C570020A404002070B505460C460020AE
:1026000039490870394800780E2863D2DFE800F0B5
:10261000070810161C226262626262353C4500BFE8
:10262000FE2C04D13248047002203049087057E073
:102630002F48447003202D49087051E02C488470C5
:1026400004202A4908704BE02948C4700520274916
:10265000087045E0274801880088401C254A108002
:102660002348001D4454001F4078114609888842C1
:1026700002D10B201D49087032E020021C498885D8
:102680000C201A4908702BE01948808D2043184906
:1026900088850D201549087022E0164801881448E5
:1026A000001DFFF7BDFC1249898D88420CD1EF2C2B
:1026B0000AD12E220E492846FDF7B8FD00200E490A
:1026C000087001200849087000200A49088007495D
:1026D000087005E00020074908800449087000BF21
:1026E00000BF0148007870BD92010020C0010020A9
:1026F00090570020BE0100207C01002008B500207A
:102700000E49087015E001216846FFF719FD9DF894
:1027100000100B48FFF770FF58B1012007490870FF
:1027200008480068C0430849C1F8B4010448FFF7ED
:10273000E0FDFFF7D3FC0028E5D108BD7D010020B6
:102740009E560020B40122420000224210B50446E9
:102750000E48006844600E480068844207D20B4867
:102760000168091D0B48006800F0CAFB0CE007482F
:102770000168091D0848006800F0C2FB07480068AE
:10278000844201D20548046010BD000014010020FD
:10279000280100201C010020180100204801002011
:1027A00070B505460E46482000F058F9044664B15D
:1027B0001EB9A80000F052F900E030462063206BFB
:1027C00018B9204600F034FC0024204670BD0000FB
:1027D00070B523E000F080FD1348006808B90120BF
:1027E00000E00020054601F079F8BDB900F0FAFBE1
:1027F0000D48C068C468201D00F05EFB0B480068EF
:10280000401E0A4908600A480068401E08490860DE
:1028100000F0F8FB204600F00DF800BF0448006807
:102820000028D7D170BD000004060020240100203C
:102830002001002010B50446206B00F0F9FB204673
:1028400000F0F6FB10BD000070B5194820F0070439
:102850001848046000201749486044F6F8702618AC
:10286000083E15480660007800F0070008B901200E
:1028700000E0002018B9FDF7A7FC00BFFEE700202C
:102880000D49096848600C4909680860254644F606
:10289000F0706860084800682860084800680838D8
:1028A000064908604FF000400549086070BD00000F
:1028B000340600205801002060010020640100203F
:1028C0006C01002000BFFFF783FF03480068012868
:1028D000F9D900F0F3FBF6E7640500202DE9F04795
:1028E00004460F4615469946DDF82080002607E08D
:1028F000B95D04F134008155B85D00B902E0761C81
:10290000102EF5D300BF002143200155052D00D323
:102910000425E5626564201D00F0EFFA04F118005B
:1029200000F0EBFA2461C5F10500A0616462BDE826
:10293000F087000010B5002407E004EB84010F4A83
:1029400002EB810000F0CCFA641C052CF5D30C4896
:1029500000F0C6FA0B4800F0C3FA0B4800F0C0FACA
:102960000A4800F0BDFA0A4800F0BAFA04480949DA
:10297000086004480849086010BD00006405002094
:10298000C8050020DC050020F0050020040600201A
:1029900018060020180100201C01002010B5014677
:1029A000164800E0006803688B42FBD30246436888
:1029B00013448B4204D143684C682344436001466E
:1029C0000A464B6813440468A34211D10C4C0368B7
:1029D0002468A34208D04B680468646823444B60B1
:1029E00003681B680B6005E0054B1B680B6001E08A
:1029F00003680B60884200D0016010BD58010020C0
:102A0000600100200A490968096809B9012100E04C
:102A1000002121B14FF0FF31064A116006E0044960
:102A20000968C968C868034A4168116070470000B6
:102A3000180100204801002007480068401C08B920
:102A4000012000E0002018B9FDF7BEFB00BFFEE743
:102A5000FDF7BAFB00BFFEE74C0100202DE9F04175
:102A600005464FF0000800F037FC2B48006808B915
:102A7000FFF7EAFE294800682840002847D145B101
:102A8000083505F0070020B105F00700C0F1080087
:102A90000544002D3BD022480068854237D8214E9E
:102AA0003046046801E0264624686068A84202D2E5
:102AB00020680028F7D118480068844227D0306881
:102AC00000F10808206830606068401B102807D9B2
:102AD00067196068401B786065603846FFF75EFFE5
:102AE0000F4960680968081A0D49086008460068BF
:102AF0000D490968884203D2094800680A490860FC
:102B0000064960680968084360600020206000F0A2
:102B1000E5FE4046BDE8F081600100206C01002028
:102B2000640100205801002068010020001F4FF0C0
:102B300080730360001F0160001F034B03601438A3
:102B40000260203870470000392A000808B50121CA
:102B50000846FEF7ABFA01213748FDF7A9FF01212E
:102B60000420FEF7A3FA01210820FEF79FFA0420B3
:102B70008DF8030001208DF80200C003ADF80000BD
:102B800069462E48FDF708FF10208DF8030001204C
:102B90008DF802000003ADF8000010208DF803004E
:102BA00001208DF8020069462548FDF7F5FE4FF437
:102BB0000060ADF8000010208DF8030001208DF8B2
:102BC000020069461E48FDF7E7FE4FF480511C489D
:102BD000FDF7B8FF4FF400611948FDF7B3FF4FF45C
:102BE0001650FDF75BFD4FF4FA7000F0D9FA06219C
:102BF0001448FEF753FF4FF4FA7000F0D1FA0321A6
:102C00001148FEF74BFF4FF4FA7000F0C9FA4FF489
:102C100080510B48FDF794FF4FF400610848FDF721
:102C20008FFF642000F0BCFA4FF46140FDF736FDE1
:102C3000642000F0B5FA08BD000230000010014029
:102C400000080140C1000020CF0000200AA0FFF7CB
:102C50001DF9012080F3138800BF00BF0A480068F7
:102C600000F4E06009490843001D07490860BFF30C
:102C70004F8F00BF00BFFEE773797374656D5265B7
:102C8000626F6F740D0A00000CED00E00000FA05A1
:102C90002DE9FC5F03273C254FF4C8784FF001096C
:102CA0004FF0140A3224A0265A48407900287DD1DA
:102CB000594908705948007800283CD05848007895
:102CC000002871D00A20FDF73FFF8346FDF7A6FAE2
:102CD000FDF79AFA311B491C90FBF1F201FB12003F
:102CE0002044504908800846008800F059FA4C48B2
:102CF0000078002858D000204B4908704B480078D5
:102D0000401C4A4908704348C07942494979DFF874
:102D100004C1CDE900109CF80330DCF81E20DCF87B
:102D20001A10DCF81600FFF711FC4048017840A0AB
:102D3000FFF7ACF838E047480078002834D10A2083
:102D4000FDF702FF8346FDF769FAFDF75DFAA8EB90
:102D50000501491C90FBF1F201FB120028443149A6
:102D600008800846008800F01BFA3A480078D8B975
:102D70002848C07927494979DFF898C0CDE9001083
:102D80009CF80330DCF81E20DCF81A10DCF8160082
:102D9000FFF7DCFB25480078401C244908700846F2
:102DA00001782DA0FFF772F8204800E01EE00078BF
:102DB000142814D10A20FDF7C7FE8346FDF72EFA2A
:102DC000FDF722FA311B491C90FBF1F201FB1200C6
:102DD0002044144908800846008800F0E1F91348AF
:102DE0000078322812DBFFF731FF0FE00948407905
:102DF000FF2807D100200D49087006271FA0FFF704
:102E000045F803E000200949087004273846BDE86A
:102E1000FC9F0000A4040020040000208C0100207E
:102E200092010020800100208E010020BC010020C2
:102E30006E6F726D616C206D6F64653A2061736BAB
:102E400020666F722069642074696D65733A20256D
:102E500064200A007C0100206D657368206D6F643A
:102E6000653A2061736B20666F7220696420746913
:102E70006D65733A202564200A0000006920616DA9
:102E8000206F6B206275742072656A656374656477
:102E90002021200A0000000004200649497909B9D0
:102EA000032006E003498978142902DD0021014A44
:102EB00051717047A404002001460A69D1E901302C
:102EC0009860D1E9010358605068884201D1886850
:102ED0005060002008611068401E10601068704744
:102EE00000F1080141604FF0FF31816000F10801FD
:102EF000C1600161002101607047002101617047DC
:102F000010B502460B685C1C0CB9106907E002F1B1
:102F1000080000E04068446824689C42FAD944688C
:102F20004C604C68A160886041600A611468641C50
:102F3000146010BD42684A6093688B609368596062
:102F40009160086103685B1C0360704701253C24A5
:102F50004FF4C87641E0FFF7D1FB204800780728FE
:102F600036D2DFE800F004080C23282D2E000120C3
:102F70001A4908702DE002201849087029E00A203B
:102F8000FDF7E2FD0746FDF749F9FDF73DF9311B75
:102F9000491C90FBF1F201FB12002044C5B2284607
:102FA00000F0FEF803200D49087012E0FFF770FEF4
:102FB0000A4908700DE0FFF76FFF0849087008E044
:102FC00007E00748407910B902200449087000E082
:102FD00000BF00BF022000F0E3F8BCE706000020BD
:102FE000A404002010B5FDF7EFF805480068401C68
:102FF00003490860BFF34F8FBFF36F8F10BD000010
:103000004C01002010B50948006818B9FDF7DCF83C
:1030100000BFFEE705480068401E044908600846F6
:10302000006810B90020FDF7D6F810BD4C01002053
:1030300070B506463546002E31D0083D2C4618495D
:1030400060680968084008B1012000E0002018B954
:10305000FDF7BAF800BFFEE7206808B9012000E0DC
:10306000002018B9FDF7B0F800BFFEE70C49606812
:103070000968084098B1206888B9094960680968FA
:103080008843606000F028F90649606809680844D0
:10309000044908602046FFF781FC00F01FFC70BD6A
:1030A0006C0100206401002003484FF0E0214861DA
:1030B00007200861704700003F1901004FF0805061
:1030C00003490860BFF34F8FBFF36F8F7047000055
:1030D00004ED00E01FB5FDF765FAFDF74BFA29E0B6
:1030E00000200323CDE90030029003464FF4007224
:1030F00011A10390144800F077FA00200323CDE9D2
:103100000030029003464FF4007210A10390134860
:1031100000F06AFA00200323CDE900300290034654
:103120004FF400720EA10390104800F05DFA0020E9
:1031300000F060F8D4E70000765377697463685F45
:103140005461736B0000000071310008765472699D
:10315000676765725F5461736B0000007933000824
:10316000764D4553485F5461736B00004D2F000846
:1031700010E009480068C0430849C1F8B801FDF7EC
:103180005DFD04462046FDF729FD4FF4FA7000F07E
:1031900007F800BFEDE70000B8012242000022421C
:1031A00070B504460026D4B10F48006808B9012064
:1031B00000E0002018B9FDF707F800BFFEE700F0B7
:1031C0008BF80A480068051909480068001DFFF7D8
:1031D00073FE2846FFF7BAFA00F080FB06460EB9E8
:1031E000FFF76CFF70BD00003401002028010020B3
:1031F0001401002070B50546FFF7F4FE15B91B4811
:10320000006800E028460446201DFFF755FEA06A2E
:1032100018B104F11800FFF74FFE211D1448FFF705
:1032200089FE14480068401C124908601248006872
:10323000401C11490860FFF7E5FE1048006898B18E
:103240000A48006884420DD10D48006808B9012081
:1032500000E0002018B9FCF7B7FF00BFFEE7FFF75A
:103260002DFF01E0FFF7CEFB70BD00001401002030
:10327000040600202001002044010020300100202D
:10328000340100201FB500200090019002900346F9
:1032900080220CA103900D4800F0A6F90446012CF1
:1032A0000AD1FCF791FF0120094908600020094973
:1032B000086000F0E1F804E01CB9FCF785FF00BFEE
:1032C000FEE71FBD49444C4500000000C52800082A
:1032D000300100202801002002480068401C0149FC
:1032E000086070473401002010B51E48006818B10E
:1032F00001201D49086033E000201B4908600BE0F5
:103300001A48006818B9FCF75FFF00BFFEE71748CE
:103310000068401E154908601448006800EB8000F2
:10332000134951F8200008B9012000E000200028CE
:10333000E6D10E49096801EB81010D4A02EB8100DB
:1033400041684968416000F1080142688A4202D13F
:103350004168496841604168C968064A116000BF18
:1033600010BD0000340100203C0100202C01002091
:1033700064050020140100206BE0FDF7ABFC35482C
:10338000407B012802D03448006830B9012033491D
:103390000870C8203249088005E000202F490870D5
:1033A00001203049086001202A49C8700846C07BC6
:1033B000012802D100202C4908602648007C012801
:1033C00003D100202849091F08602248407C0128B9
:1033D00003D100202449083908601E48807C012858
:1033E00002D10020214908601A48C07C012803D17D
:1033F00000201C49083108601648007D012803D1CF
:1034000000201849091D08601248407911490870C8
:1034100008464079A0B90120134908601449C1F851
:103420009001114908390860104908600D490831B8
:103430000860091F0860091F08600E49C1F8BC0137
:10344000044880783C2801DDFFF700FC0220FFF7EC
:10345000A7FE92E7A4040020180121420B000020DF
:103460000C000020A801224294812142888122423E
:1034700000802142000021421CB522480146097803
:103480000191FF21024611700146097800919DF8D3
:10349000001001F010011C4A117007211B4A116035
:1034A00009E01A490968491E184A11609DF8001080
:1034B0004906090E00919DF8001001F08001802955
:1034C000EFD0124909680902104A116011460988B3
:1034D00001F4E06111600B4A019911700C48006819
:1034E00040F470000A4908600846006840F07040E7
:1034F0000860FFF7D9FD002006490860FCF734FE9C
:1035000000201CBD00E400E0500100205401002018
:1035100020ED00E04C0100202DE9F04705460E4665
:1035200091464FF00008C5B14C20FFF797FA0446CA
:103530009CB105FB06F0471C3846FFF78FFA206068
:10354000206838B1E56326640121204600F00FF8B9
:10355000A04602E02046FFF76BFDB8F1000F03D153
:10356000FCF732FE00BFFEE74046BDE8F08770B5CD
:1035700005460E462C461CB9FCF726FE00BFFEE7AA
:10358000FFF730FDD4E90F12206801FB02006060F4
:103590000020A0632068A060E06B401E226C2168C0
:1035A00000FB0210E0604FF0FF306064A06476B969
:1035B000206908B9012000E0002080B904F1100062
:1035C00000F048F901280AD1FFF778FD07E004F17F
:1035D0001000FFF785FC04F12400FFF781FCFFF7E2
:1035E00011FD012070BD00002DE9FF4F81B0804624
:1035F00016469A46DDE90E5BB8F1000F03D1FCF7E1
:10360000E3FD00BFFEE7052D01D2012000E0002010
:1036100018B9FCF7D9FD00BFFEE730461099FFF757
:10362000BFF80446002C59D0701E216B01EB8009B5
:1036300029F0070909F0070008B9012000E000207F
:1036400018B9FCF7C1FD00BFFEE700962A462046E8
:10365000119B0299FFF742F9524641464846FFF74F
:1036600065FA2060BBF1000F01D0CBF80040FFF7F6
:10367000B9FC23480068401C2149086021480068C3
:1036800040B9204804600846006801280CD1FFF7C3
:1036900051F909E01C48006830B91A480068C06A4E
:1036A000A84201D81748046018480068401C174910
:1036B00008601749E06A0968884202D91449E06A3B
:1036C0000860E16A01EB8101124A02EB8100211DD1
:1036D000FFF730FC0127FFF795FC01E04FF0FF37C3
:1036E000012F09D10848006830B106480068C06A57
:1036F000A84201D2FFF7E2FC384605B0BDE8F08FE2
:103700002401002014010020300100204401002089
:103710002C010020640500202DE9F0414FF0000845
:1037200041480068002871D140480068401C3F496A
:10373000086008460668DEB93D480068006808B9B8
:10374000012000E0002018B9FCF73EFD00BFFEE7B5
:1037500037480768374800683549086035480760CA
:1037600035480068401C34490860FFF74BF900BF3A
:103770003248006886423BD300BF2D48006800688D
:1037800008B9012000E0002020B14FF0FF302B49A4
:1037900008602CE026480068C068C4686568AE42CE
:1037A00002D22648056022E0201DFFF785FBA06AB3
:1037B00018B104F11800FFF77FFB2149E06A09689E
:1037C000884202D91E49E06A0860E16A01EB810182
:1037D0001C4A02EB8100211DFFF7ACFB1A49E06A8D
:1037E0000968C96A8842C8D34FF00108C5E700BF1D
:1037F00015480068C06A00EB8000124951F82000AB
:10380000012808D94FF0010805E0FFE70F480068DC
:10381000401C0E4908600E48006808B14FF00108CE
:103820004046BDE8F081000034010020280100205E
:10383000180100201C010020400100204801002048
:103840002C01002064050020140100203801002014
:103850003C01002070B50646F068C4681CB9FCF74E
:10386000B3FC00BFFEE704F11800FFF725FB154885
:103870000068A0B9201DFFF71FFB1349E06A096823
:10388000884202D91049E06A0860E16A01EB8101CF
:103890000E4A02EB8100211DFFF74CFB04E004F10E
:1038A00018010B48FFF746FB0A49E06A0968C96A34
:1038B000884204D9012501200749086000E000255D
:1038C000284670BD340100202C0100206405002032
:1038D000F0050020140100203C01002070B50025F7
:1038E0003048006818B9FCF76FFC00BFFEE7FFF72F
:1038F00079FB2C480068401E2A4908600846006889
:1039000000284AD128480068002846D023E02748EC
:10391000C068C46804F11800FFF7CEFA201DFFF755
:10392000CBFA2349E06A0968884202D92049E06A53
:103930000860E16A01EB81011E4A02EB8100211D52
:10394000FFF7F8FA1C49E06A0968C96A884202D39D
:1039500001201A4908601548006808B9012000E0F4
:1039600000200028D3D01648006878B10AE0FFF79D
:10397000D3FE10B101201149086011480068401EB3
:103980000F4908600E4800680028F0D10B48006815
:10399000012802D10125FFF791FBFFF733FB2846F1
:1039A00070BD00003401002024010020F00500203B
:1039B0002C01002064050020140100203C0100209F
:1039C0003801002000002110422063308440A550BF
:1039D000C660E770088129914AA16BB18CC1ADD155
:1039E000CEE1EFF13112100273325222B5529442FD
:1039F000F772D662399318837BB35AA3BDD39CC3A5
:103A0000FFF3DEE36224433420040114E664C77448
:103A1000A44485546AA54BB528850995EEE5CFF5F4
:103A2000ACC58DD55336722611163006D776F6669C
:103A30009556B4465BB77AA719973887DFF7FEE744
:103A40009DD7BCC7C448E5588668A7784008611868
:103A500002282338CCC9EDD98EE9AFF94889699994
:103A60000AA92BB9F55AD44AB77A966A711A500A3C
:103A7000333A122AFDDBDCCBBFFB9EEB799B588BE4
:103A80003BBB1AABA66C877CE44CC55C222C033C88
:103A9000600C411CAEED8FFDECCDCDDD2AAD0BBD34
:103AA000688D499D977EB66ED55EF44E133E322EDC
:103AB000511E700E9FFFBEEFDDDFFCCF1BBF3AAF84
:103AC000599F788F8891A981CAB1EBA10CD12DC1E2
:103AD0004EF16FE18010A100C230E3200450254078
:103AE00046706760B9839893FBA3DAB33DC31CD3D8
:103AF0007FE35EF3B1029012F322D23235421452C8
:103B000077625672EAB5CBA5A89589856EF54FE523
:103B10002CD50DC5E234C324A01481046674476417
:103B200024540544DBA7FAB79987B8975FE77EF777
:103B30001DC73CD7D326F2369106B0165766767667
:103B4000154634564CD96DC90EF92FE9C899E98943
:103B50008AB9ABA94458654806782768C018E108B7
:103B60008238A3287DCB5CDB3FEB1EFBF98BD89B17
:103B7000BBAB9ABB754A545A376A167AF10AD01A07
:103B8000B32A923A2EFD0FED6CDD4DCDAABD8BAD63
:103B9000E89DC98D267C076C645C454CA23C832C57
:103BA000E01CC10C1FEF3EFF5DCF7CDF9BAFBABFB7
:103BB000D98FF89F176E367E554E745E932EB23EA7
:103BC000D10EF01EE43B000800000020CC010000F4
:103BD000A0020008503C0008CC010020F465000061
:103BE000BC1E0008121E520149083AFF01000D19BF
:103BF0003031323334356162636465665B010134B0
:103C0000011409181A011CC98C09224A191E27C05F
:103C1000FFFF36644419080F19D86422C4C4C4389D
:103C20007CA24A04BF6808020304060708090C695D
:103C3000100534020406081AFF011AAA0101144BE8
:103C4000F84F04A9D40539C092ED190911DB4100E0
:0400000508000131BD
:00000001FF
